:100000000C942A000C9434000C9434000C943400AA
:100010000C9434000C9434000C9434000C94340090
:100020000C9434000C9434000C9434000C94340080
:100030000C9434000C9434000C9434000C94340070
:100040000C9434000C9434000C9434000C94340060
:100050000C94340011241FBECFE5D8E0DEBFCDBF25
:100060000E94FB010C940A020C940000843008F0FA
:1000700075C0683008F072C04130B1F5813099F038
:10008000813030F08230D1F0833009F067C021C078
:100090002BB381E090E002C0880F991F6A95E2F7C8
:1000A000282B2BBB089528B381E090E002C0880F75
:1000B000991F6A95E2F7282B28BB089525B381E0A4
:1000C00090E002C0880F991F6A95E2F7282B25BBA4
:1000D000089522B381E090E002C0880F991F6A95CD
:1000E000E2F7282B22BB08954423C1F5813099F013
:1000F000813028F08230D9F0833081F524C02BB3D1
:1001000081E090E002C0880F991F6A95E2F7809520
:1001100082238BBB089528B381E090E002C0880F52
:10012000991F6A95E2F78095822388BB089525B3CD
:1001300081E090E002C0880F991F6A95E2F78095F0
:10014000822385BB089522B381E090E002C0880F2E
:10015000991F6A95E2F78095822382BB08958430C7
:1001600000F56830F0F4813049F0813028F08230B9
:1001700039F08330B1F40DC089B303C086B301C038
:1001800083B390E002C0959587956A95E2F78170F8
:10019000089580B390E002C0959587956A95E2F73F
:1001A00081700895843008F075C0683008F072C01E
:1001B0004130B1F5813099F0813030F08230D1F0AA
:1001C000833009F067C021C02AB381E090E002C00B
:1001D000880F991F6A95E2F7282B2ABB089527B349
:1001E00081E090E002C0880F991F6A95E2F7282B02
:1001F00027BB089524B381E090E002C0880F991FC7
:100200006A95E2F7282B24BB089521B381E090E0A2
:1002100002C0880F991F6A95E2F7282B21BB089529
:100220004423C1F5813099F0813028F08230D9F033
:10023000833081F524C02AB381E090E002C0880FAA
:10024000991F6A95E2F7809582238ABB089527B3A8
:1002500081E090E002C0880F991F6A95E2F78095CF
:10026000822387BB089524B381E090E002C0880F09
:10027000991F6A95E2F78095822384BB089521B384
:1002800081E090E002C0880F991F6A95E2F780959F
:10029000822381BB08958430B0F56830A0F58130A9
:1002A00091F0813028F08230C9F0833061F521C0AF
:1002B0002BB381E090E002C0880F991F6A95E2F7A6
:1002C00028272BBB089528B381E090E002C0880F57
:1002D000991F6A95E2F7282728BB089525B381E086
:1002E00090E002C0880F991F6A95E2F7282725BB86
:1002F000089522B381E090E002C0880F991F6A95AB
:10030000E2F7282722BB0895813049F0813028F098
:10031000823039F0833041F406C06ABB089567BB70
:10032000089564BB089561BB0895813049F0813020
:1003300028F0823039F0833041F406C06BBB089559
:1003400068BB089565BB089562BB0895813059F07C
:10035000813028F0823059F0833081F40CC08BB3A7
:1003600080958BBB089588B3809588BB089585B32D
:10037000809585BB089582B3809582BB08958130B6
:1003800049F0813028F0823039F0833041F406C0E2
:1003900089B3089586B3089583B3089580B308950B
:1003A0008FB58F7B8FBD8FB580688FBD8FB58F7EEA
:1003B0008FBD8FB580628FBD8FB58E7F8FBD8FB59E
:1003C00082608FBD8EB588608EBD8EB580618EBD1A
:1003D0008EB58E7F8EBD8EB582608EBD8EB58B7FC5
:1003E0008EBD089597BD86BD08959BBD8ABD0895B5
:1003F00099BD88BD08950E94D00180E29EE40E94CC
:10040000F20183E06FEF0E9484018CEF93E00E9481
:08041000F5010895F894FFCFF7
:00000001FF
